:020000040800F2
:10000000003B0120794700087103000873030008D2
:10001000770300087B0300087F030008000000004E
:100020000000000000000000000000009D02000829
:100030008303000800000000F9020008C530000832
:100040009347000893470008934700089347000828
:100050009347000893470008934700089347000818
:10006000850300089347000893470008934700085A
:10007000630500089347000893470008934700086A
:1000800093470008934700089347000811050008AC
:100090000D0400089347000893470008A7030008D1
:1000A00093470008934700089347000893470008C8
:1000B00027050008870500081F0F00089347000860
:1000C00093470008934700089347000893470008A8
:1000D0009347000893470008934700089347000898
:1000E0009347000893470008934700089347000888
:1000F0009347000893470008934700089347000878
:1001000093470008934700084505000893470008F7
:100110009347000893470008934700089347000857
:100120009347000893470008934700089347000847
:10013000934700089347000893470008FB04000812
:100140005B040008934700089347000893470008A2
:10015000C70300089347000893470008D71B00080F
:100160009347000893470008934700089347000807
:1001700093470008934700089347000893470008F7
:1001800093470008934700089347000893470008E7
:1001900093470008934700089347000893470008D7
:1001A00000000000000000009347000800F002F883
:1001B00000F064F80AA090E8000C82448344AAF19D
:1001C0000107DA4501D100F059F8AFF2090EBAE89B
:1001D0000F0013F0010F18BFFB1A43F0010318477B
:1001E00018D5000038D500000A444FF0000C10F874
:1001F000013B13F0070408BF10F8014B1D1108BFA5
:1002000010F8015B641E05D010F8016B641E01F844
:10021000016BF9D113F0080F1EBF10F8014BAD1C94
:100220000C1B09D16D1E58BF01F801CBFAD505E0B2
:1002300014F8016B01F8016B6D1EF9D59142D6D30C
:10024000704700000023002400250026103A28BF34
:1002500078C1FBD8520728BF30C148BF0B60704738
:1002600075290BF0958363290BF0478500207047B3
:100270001FB50DF032F91FBD10B510BD0BF08AFD92
:100280001146FFF7F5FF00F068F80BF0A8FD03B486
:10029000FFF7F2FF03BC02F08BFF00002C4B196844
:1002A0000868B0E8F04F80F30988BFF36F8F4FF014
:1002B000000080F3118870470000000008480068C3
:1002C000006880F308884FF0000080F3148862B65D
:1002D00061B6BFF34F8FBFF36F8F00DF00BF00BF6A
:1002E00008ED00E0DFF80C00016841F470010160E6
:1002F000704700BF88ED00E0EFF30980BFF36F8F18
:10030000134B1A681EF0100F08BF20ED108A20E969
:10031000F04F106009B44FF0500080F31188BFF324
:100320004F8FBFF36F8F09F09DFE4FF0000080F3F9
:10033000118809BC19680868B0E8F04F1EF0100F6A
:1003400008BFB0EC108A80F30988BFF36F8F704745
:100350008C010020EFF3058070474FF4407004F0EB
:100360002BFAB42002F0B6FE02F0D1FC00BFFEE78B
:10037000704700BFFEE700BFFEE700BFFEE700BF1B
:10038000FEE7704710B5042007F0CAFC38B1A54855
:10039000006808B9012000E00020A249086004209C
:1003A00007F0C9FC10BD08B54FF4807007F0B8FC29
:1003B00020B169469C48006808F02AFE4FF480701E
:1003C00007F0B9FC08BD08B59849994805F083FFC6
:1003D000012816D19549964805F099FF934994480C
:1003E00005F0F0FF69469348006808F011FE009898
:1003F00038B14FF0805090490860BFF34F8FBFF382
:100400006F8F8E498A4805F082FF08BD00B587B01E
:1004100002218B4805F038FD58B101AA0021884817
:1004200005F0AFFB022306AA01A98648006808F080
:1004300073FD0221824805F0C2FD8349804805F022
:1004400000FD069838B14FF080507B490860BFF33B
:100450004F8FBFF36F8F07B000BD00B52DED088B38
:1004600085B00221794805F00FFDE8B302217748F5
:1004700005F0A5FD7449754805F0E3FC6A460021C6
:10048000724805F07EFB0098A0F2015068BB7048EE
:10049000DDF80B1001609DF80F1001710146B1F9F4
:1004A00002000CF05FFC41EC1B0B9FED6A0B53EC60
:1004B000102B0CF0ABFC41EC190B654890ED020AD7
:1004C00010EE101A08460CF097FF41EC1A0B53EC93
:1004D000192B0CF0A7FE41EC180B0CF005FA5C4947
:1004E00088600020C86001E003E000E000BF00BFBA
:1004F00000BF05B0BDEC088B00BD10B5012153480D
:1005000005F0C2FC18B10121504805F058FD10BD9E
:1005100010B501214A4805F0B7FC18B1012148483F
:1005200005F04DFD10BD10B50121880706F0D3FC84
:1005300038B10121880706F0DFFC0121880706F0A9
:10054000C7FC10BD10B50121444806F0C4FC38B109
:100550000121424806F0D0FC0121404806F0B8FCD9
:1005600010BD10B53E493F4805F0B5FE012809D140
:100570003B493C4805F0CBFE39493A4805F022FF9B
:1005800002F045FD10BD10B50121374806F0A3FC6F
:10059000012841D1354801684FF4007002F0C5FBD5
:1005A000324841684FF4806002F0BFFB2F488168F9
:1005B0004FF4807002F0B9FB2C48C1684FF4006022
:1005C00002F0B3FB294801694FF4805002F0ADFB03
:1005D000264841694FF4004002F0A7FB2348816997
:1005E0004FF4005002F0A1FB2048C1694FF4804055
:1005F00002F09BFB1D484069007802280CD11C4882
:100600000078401C1A49087001201A4908601A48ED
:100610000078401C184908700121134806F06CFC52
:1006200010BD0000AC02424284000020008800207F
:10063000886402408000002004ED00E000080020F3
:1006400000640040A800002008000032006800405C
:10065000E4010020FCA9F1D24D62503F000C0040A3
:1006600000880010286002400004004004000020C0
:100670000000002080824242010000200CB50020D2
:10068000019000908348006840F480308149086000
:1006900000BF8048006800F4003000900198401CC2
:1006A0000190009818B90198B0F5A04FF1D17948A0
:1006B000006800F4003010B10120009001E000203B
:1006C00000900098012860D172484030006840F0E6
:1006D00080507049403108606F48006840F44040E5
:1006E0006D4908606B48083000686A490831086045
:1006F0000846006840F4004008600846006840F47E
:10070000A05008606548091F0860081F006840F095
:100710008070091F086000BF5E48006800F000702C
:100720000028F9D05C48006840F480305A490860DD
:1007300000BF5948406800F480300028F9D056487E
:10074000006840F400305449086000BF52484068D7
:1007500000F400300028F9D040F2057050490860DC
:100760004C480830006820F003004A49083108600E
:100770000846006840F00200086000BF45480830A5
:10078000006800F00C000828F8D10CBD10B54548F1
:10079000006840F47000434908603E48006840F03B
:1007A00001003C49086000203A4908310860394896
:1007B00000683D490840374908603C48091D086009
:1007C000081F006820F48020091F086000203149BC
:1007D0000C310860FFF752FF4FF00060314980395B
:1007E000086010BD70B50020002202230024022101
:1007F000284D08352D6805F00C0020B1042806D0DE
:10080000082834D107E02A4D2A4E356033E02A4DBE
:10081000284E35602FE01F4D2D1D2D68C5F38054E7
:100820001C4D2D1D2D6805F03F0154B1224DB5FB27
:10083000F1F5184E361D3668C6F3881605FB06F22C
:1008400009E01B4DB5FBF1F5124E361D3668C6F3B7
:10085000881605FB06F20F4D2D1D2D68C5F30145C9
:100860006D1C6B00B2FBF3F5124E356003E0104DCA
:10087000104E356000BF00BF064D08352D68C5F32A
:1008800003150E4E705D0B4D2D68C540094E356049
:1008900070BD000000380240007000400C5A400754
:1008A000003C024088ED00E0FFFFF6FE103000241F
:1008B0000024F40024000020001BB70028000020C2
:1008C000D0ED000AF4EEC00AF1EE10FA01DD80ED81
:1008D000000AD0ED000AB1EE401AF4EEC10AF1EEC2
:1008E00010FA03D2F1EE400AC0ED000A70478363AC
:1008F0004263016380ED000AC0ED010A80ED021A37
:10090000704780ED000AC0ED010A80ED021ADFEDAC
:100910006B1AC0ED061ADFED691AC0ED071ADFED9C
:10092000671AC0ED081ADFED651AC0ED091A7047A5
:1009300000B50346881A00EE100AB8EEC00A83ED2F
:10094000050A186B03283ED193ED000AD3ED050A82
:1009500020EE200A83ED060A93ED070AD3ED010A83
:1009600093ED051A00EE810A83ED070A93ED050A5F
:10097000D3ED040A30EE600AD3ED020A20EE200A1D
:1009800083ED080AD3ED0E0AF8EE600AB0EE600AB5
:1009900003F11C00FFF794FF93ED060AD3ED070A5D
:1009A00030EE200AD3ED080A30EE200A83ED090A62
:1009B000D3ED0D0AF8EE600AB0EE600A03F12400F0
:1009C000FFF77EFF42E0186B04283FD193ED050A44
:1009D000D3ED040A30EE600AD3ED000A20EE200ABF
:1009E00083ED060A93ED010AD3ED050A20EE200AF5
:1009F00083ED070A93ED050AD3ED040AB0EE001A61
:100A000001EE600AD3ED030A30EE200AD3ED020AAC
:100A100020EE200A83ED080A93ED060AD3ED070ABB
:100A200030EE200AD3ED080A30EE200AD3ED090A91
:100A300030EE200A83ED090AD3ED0D0AF8EE600AC4
:100A4000B0EE600A03F12400FFF73AFF93ED040AC9
:100A500083ED030A93ED050A83ED040A93ED090A79
:100A600000BD2DE9F0412DED048B04460D461646E0
:100A70001F46B0EE408AF0EE608AB0EE419A104810
:100A8000E06310482064B0EE491AF0EE680AB0EE58
:100A9000480A3B46324629462046D4F83CC0E04747
:100AA000B0EE491AF0EE680AB0EE480A2046216C12
:100AB0008847BDEC048BBDE8F08100000000000019
:100AC000EF080008030900081CB50121702004F09C
:100AD0000AFA4FF40060009001208DF80400002015
:100AE0008DF8060003208DF8050001208DF8070021
:100AF0006946FE4803F056FF4FF480400090694677
:100B0000FB4803F04FFF1E2000906946F94803F0B0
:100B100049FF4FF4F07000906946F64803F042FF39
:100B20004FF48041F24803F0B9FF4FF40061EF4801
:100B300003F0B4FF1E21EF4803F0B0FF4FF4F07153
:100B4000EC4803F0ABFF1CBD00B58BB00121402089
:100B500004F010FA0121802004F0C5F909220621D1
:100B6000E54803F0AAFF4020099002208DF82800F4
:100B700003208DF8290000208DF82A0001208DF82F
:100B80002B0009A9DC4803F00DFF5920ADF818002F
:100B90000020ADF81A0040F6E66007900020ADF89E
:100BA00020008DF8220006A9D44805F0DCFC602066
:100BB000ADF804000120ADF806000420ADF80800EF
:100BC00000200390ADF810000820ADF8120040019D
:100BD000ADF814000020ADF8160001A9C74805F0D3
:100BE00057FD0121C54805F047FD0121C34806F026
:100BF00034F90BB000BD00B585B00121022004F02E
:100C000072F90121880304F0C6F904200390002042
:100C10008DF8100003208DF8110001208DF81300CD
:100C200003A9B74803F0BEFE0221012004F0BFFA79
:100C30000420009000208DF804000C208DF80500A1
:100C400001208DF80600684607F004F808208DF8AA
:100C5000080006208DF8090000208DF80A00012008
:100C60008DF80B0002A803F0ACFD05B000BD1CB56B
:100C70000121402004F037F94FF40050009001208A
:100C80008DF8040000208DF8060003208DF8050083
:100C900001208DF807006946964803F083FE1CBDCD
:100CA0001CB50121342004F01EF941F270000090BF
:100CB00001208DF8040000208DF8060003208DF837
:100CC000050001208DF807006946884803F06AFE98
:100CD000032000906946864803F064FE00208DF8EA
:100CE00004003F2000906946864803F05BFE41F215
:100CF00070017E4803F0D4FE03217D4803F0D0FE4E
:100D00003F21804803F0CAFE1CBD1FB5012102200F
:100D100004F030F942F20F7002905920ADF804004F
:100D20000020ADF80C00ADF8060001A9764805F0EA
:100D30001AFC01221146744806F0B6F81D208DF801
:100D4000000004208DF8010000208DF80200012031
:100D50008DF80300684603F034FD01216A4805F070
:100D60008BFC1FBD10B5FFF7AFFEFFF7EDFEFFF7E1
:100D700042FFFFF77CFFFFF793FFFFF7C6FF10BDB1
:100D800010B540F6B8305D493431086040F6E66091
:100D90005A492C310860962009F02BF840F649504A
:100DA00056492C310860962009F023F840F6D630D9
:100DB00052492C310860962009F01BF800204F4959
:100DC0003431086010BD10B540F6B8304B493431AD
:100DD000086040F6D63049492C310860962009F069
:100DE00008F840F6495045492C310860962009F032
:100DF00000F840F6E66041492C310860962008F082
:100E0000F8FF00203D493431086010BD10B540F6B0
:100E1000B8303A493431086040F6E66037492C3141
:100E20000860962008F0E5FF40F6495033492C3120
:100E30000860962008F0DDFF40F6D6302F492C31AF
:100E40000860962008F0D5FF00202C493431086056
:100E500010BD10B540F6B83028493431086040F66E
:100E6000E66026492C310860962008F0C2FF40F663
:100E7000E66022492C310860962008F0BAFF40F65F
:100E800049501E492C310860962008F0B2FF00201E
:100E90001A493431086010BD1FB50121042004F047
:100EA00069F8312002905920ADF804000020ADF817
:100EB0000C00ADF806000121144805F0BFFB01A9A4
:100EC000124805F050FB0121104805F0D5FB012226
:100ED00011460E4805F0E8FF1E208DF800000420A2
:100EE0008DF8010000208DF8020011E00010024092
:100EF0000014024000180240001C0240001800408C
:100F000000040240000802400004004000080040C5
:100F100001208DF80300684603F053FC1FBD10B597
:100F200001210B4805F0D7FF012804D109480068CA
:100F3000401C084908600121054805F0DDFF10BD8F
:100F400010B5002003490860FFF7A6FF10BD0000A0
:100F5000000800403800002000B597B001210220B1
:100F600003F0C1FF0121102004F015F801218805CC
:100F700003F0B9FF8020159002208DF85800002062
:100F80008DF85A0003208DF8590000208DF85B0081
:100F900015A93A4803F006FD07221146374803F029
:100FA0008CFD374804F03CF9364811900020ADF82C
:100FB0004800ADF84A004FF48060ADF84C000420C2
:100FC000ADF84E000020ADF8500011A92C4804F0F7
:100FD0008EF901212A4804F012FA01224021284802
:100FE00004F0BAFA44208DF8400006208DF8410044
:100FF00000208DF8420001208DF8430010A803F076
:10100000E0FB0021204805F009F900BF1E480068F8
:1010100000F001000028F9D11B4805F023F84FF03B
:10102000006001901648001D0290184803900020AF
:10103000049012200590002006904FF480600790E5
:101040000020089009904FF480700A904FF44030CF
:101050000B9000200C900D900E900F9001A90A4863
:1010600005F0A2F801221021074805F064F90121DA
:10107000054805F0D3F817B000BD00000004024099
:1010800000100140A0860100886402401402002084
:1010900000B58BB00121084603F06CFF0121084622
:1010A00003F021FF012200216E4803F006FD01221A
:1010B00011466C4803F001FD01220221694803F04A
:1010C000FCFC01220321674803F0F7FC0F20099084
:1010D00002208DF8280003208DF8290000208DF8CB
:1010E0002A0001208DF82B0009A95E4803F05AFC64
:1010F00040F28330ADF818000020ADF81A0040F23D
:10110000CF7007900020ADF8200006A94FF0804076
:1011100005F029FA6020ADF804000120ADF80600C2
:101120000020ADF810006420039001A9000705F02D
:10113000AFFA01A94FF0804005F0E3FA01A94FF0A2
:10114000804005F02BFB01A94FF0804005F08CFB9F
:101150000821C80605F029FC0821C80605F02EFC68
:101160000821C80605F037FC0821C80605F03CFC3C
:101170000121880705F062FA0121880705F07CFA51
:101180000BB000BD00B58BB00121082003F0F2FECA
:101190000121802003F0A7FE02220A21324803F039
:1011A0008CFC02220B21304803F087FC02220C2128
:1011B0002D4803F082FC4FF4E050099002208DF896
:1011C000280003208DF8290000208DF82A00012036
:1011D0008DF82B0009A9244803F0E4FB40F283308A
:1011E000ADF818000020ADF81A0040F2CF7007905B
:1011F0000020ADF8200006A91C4805F0B4F97020C5
:10120000ADF804000120ADF806000020ADF8100094
:101210006420039001A9154805F03AFA01A9134882
:1012200005F06FFA01A9114805F0B8FA08210F4836
:1012300005F0BBFB08210D4805F0C0FB08210B4859
:1012400005F0C9FB0121094805F0F8F9012107481B
:1012500005F012FA0BB000BD10B5FFF719FFFFF74C
:1012600091FF10BD00000240001C0240000C004035
:1012700000B58BB00121480603F07CFE0121082057
:1012800003F031FE0320099002208DF8280003208E
:101290008DF8290009A9A34803F084FB0922002145
:1012A000A04803F00AFC092201219E4803F005FC36
:1012B00014208DF8200005208DF8210000208DF8E5
:1012C000220001208DF8230008A803F07AFA1320E9
:1012D0008DF8200005208DF8210000208DF82200D7
:1012E00001208DF8230008A803F06BFA8E4804F063
:1012F000C1F905A804F0E2FA00208DF81A008DF873
:101300001B008DF81C008DF81D008DF81E000120BB
:101310008DF81F0000208DF816008DF817000520AD
:101320008DF8180007208DF819000320ADF814007F
:1013300005A97D4804F0B7F900208DF80E008DF85E
:101340000F0001208DF810000020ADF80400ADF86A
:101350000600ADF80800ADF80A00ADF80C00012059
:101360008DF8110001A804F028FA012202216E482C
:1013700004F022FD0BB000BD00B58BB00121480682
:1013800003F0F8FD0121880603F0F4FD012102209D
:1013900003F0A9FD4FF44050099002208DF8280079
:1013A0008DF8290009A9614803F0FCFA09220C21F3
:1013B0005E4803F082FB09220D215C4803F07DFBAF
:1013C00040208DF8200004208DF8210000208DF8A9
:1013D000220001208DF8230008A803F0F2F93F2035
:1013E0008DF8200006208DF8210000208DF82200C5
:1013F00001208DF8230008A803F0E3F94C4804F01D
:1014000039F905A804F05AFA00208DF81A008DF871
:101410001B008DF81C008DF81D008DF81E000120AA
:101420008DF81F0000208DF816008DF8170005209C
:101430008DF8180007208DF819000320ADF814006E
:1014400005A93B4804F02FF90E208DF80E0000206E
:101450008DF80F0001208DF810000020ADF8040079
:10146000ADF80600ADF80800ADF80A00ADF80C00C4
:1014700001208DF8110001A804F09FF9012202213A
:101480002B4804F099FC01221146294804F094FCF1
:101490000BB000BD10B5FFF7EBFEFFF76DFF10BD01
:1014A0002DE9F04186B006460D4614464FF000087F
:1014B000019500208DF80C008DF80D0008208DF8A6
:1014C0000E002088000A8DF80F0021788DF810108A
:1014D0006088010A8DF81110A1788DF81210A0888B
:1014E000010A8DF8131021798DF81410E088010A93
:1014F0008DF81510A1798DF8161001A9304604F069
:101500004BFA074600BF3946304604F0DDFA30B9E1
:10151000404608F101084FF6FF718842F3DB06B040
:10152000BDE8F081000C024000640040000402406D
:1015300000680040014608687047014649488142FA
:1015400001D2002070474848814201D20820F9E7C3
:101550004648814201D21020F4E74548814201D239
:101560001820EFE74348814201D22020EAE74248B1
:10157000814201D22820E5E74048814201D2302053
:10158000E0E73F48814201D23820DBE73D48814215
:1015900001D24020D6E73C48814201D24820D1E721
:1015A0003A48814201D25020CCE75820CAE72DE9C1
:1015B000F04704460E4617464FF009080025A94695
:1015C000B4F1006F02D304F0030008B1BDE8F08766
:1015D00006F024F8002006F004F8254604EB8709FD
:1015E0002B48854215D211E02846FFF7A3FF401C87
:1015F00058B12846FFF7A1FF8246022106F062F8A3
:101600008046B8F1090F01D002E02D1D4D45EBD306
:1016100000BFB8F1090F0CD108E02046316806F090
:101620006DF9092800D003E0241D361D4C45F4D384
:1016300000BF012005F0D5FF05F0FDFF00BFC5E7A5
:1016400030B503460C461546002206E01846FFF763
:1016500071FF44F822001B1D521CAA42F6D330BD74
:1016600070477047004000080080000800C0000874
:10167000000001080000020800000408000006083D
:101680000000080800000A0800000C0800000E080E
:101690000000FF1F1CB50121082003F024FC4FF4BB
:1016A0004070009002208DF8040000208DF80600A4
:1016B00003208DF8050000208DF807006946494891
:1016C00003F070F907220921464803F0F6F90722D2
:1016D0000821444803F0F1F91CBD1FB5012188041D
:1016E00003F048FC404803F09BFD4FF4E1300090CC
:1016F0000020ADF80400ADF80600ADF808000C209D
:10170000ADF80A000020ADF80C006946364803F039
:10171000EEFD0121344803F072FE012240213248DF
:1017200003F01AFF1FBD08B50C208DF80000002043
:101730008DF8010003208DF8020001208DF80300D0
:10174000684603F03EF808BD00B58FB0012148059A
:1017500003F0C9FB0021254804F060FD00BF2348C9
:101760002838806A00F001000028F8D11F4804F0F2
:1017700079FC4FF0006000901B48001D01901C4850
:1017800002900020039008200490002005904FF460
:10179000806006900020079008904FF480700990B8
:1017A0004FF440300A9000200B900C900D900E905A
:1017B00069460E4804F0F8FC012210210B4804F0A1
:1017C000BAFD0121094804F029FD0FB000BD10B594
:1017D000FFF760FFFFF781FFFFF7A5FFFFF7B4FFFB
:1017E00010BD0000000C024000480040286002408C
:1017F0007006002000B597B00121202003F0CBFB3C
:101800000121402003F06FFB0121880503F06BFBF1
:1018100008220921FE4803F050F908220E21FC4855
:1018200003F04BF94FF40070159002208DF858002A
:1018300003208DF8590000208DF85A0001208DF802
:101840005B0015A9F24803F0ADF8F24804F00AFC79
:101850000021F04804F0E2FC00BFEE4804F02BFD4C
:101860000028FAD14FF020600190EB480290EB483D
:1018700003900020049078200590002006904FF4FB
:10188000806007900020089009904FF480700A90C3
:1018900000020B9000200C9003200D9000200E9071
:1018A0000F9001A9DB4804F07FFC0121D94804F026
:1018B000B5FCD948001F03F0B3FC4FF4E1301190A0
:1018C0000020ADF84800ADF84A00ADF84C00ADF886
:1018D00050000420ADF84E0011A9CF48001F03F0BE
:1018E00006FD0121CC48001F03F089FD002240F2D3
:1018F0002661C948001F03F038FE002240F225513E
:10190000C548001F03F031FE012240F22441C248C5
:10191000001F03F02AFE47208DF8400003208DF8B9
:1019200041008DF8420001208DF8430010A802F01C
:1019300048FF01224021B848001F03F00DFE17B0F8
:1019400000BD10B50246002329E0002021E002EB93
:101950008004D4ED000A441C02EB840494ED001AC8
:10196000F4EEC10AF1EE10FA11DD02EB800494ED01
:10197000000A441C02EB8404D4ED000A02EB80044C
:10198000C4ED000A441C02EB840484ED000A441CEC
:10199000E0B24C1EE41A8442D9DC5C1CE3B24C1E5B
:1019A0009C42D2DC10BD30B5034605E013F8010BB4
:1019B00080EA02049A48025D0800A1F10101F5D114
:1019C000104630BD70B505460C4600260DB1022C00
:1019D00001D8002070BD611EFF222846FFF7E3FFFB
:1019E0000646601E285CB04201D10120F2E70020CB
:1019F000F0E770B52DED028B9FED8A0AB0EE408ABC
:101A0000894804F02EFCC0F17800C5B20024A4E09F
:101A10008248005DA5282DD1611D8048FFF7D2FFC7
:101A2000002827D07D49601C095C7C4AA01C105C02
:101A300041EA00207D49A1F801001146E01C085C44
:101A40007A49C8701146601D095CA01D105C41EA0E
:101A5000002000B27549C8800846C08801280AD114
:101A60000846B0F801206D4BE01D19186F4808308A
:101A70000AF00DF870E06D48C088022813D167495C
:101A8000E01D085C6949097C60F303016748017443
:101A90006249E01D085C00206449097C60F307117D
:101AA0006248017458E06148C08803280AD15F4841
:101AB000B0F80120594BE01D19185C48113009F0AD
:101AC000E6FF49E05948C08804280AD15748B0F8D1
:101AD0000120524BE01D19185448173009F0D7FF68
:101AE0003AE05248C08805280AD15048B0F8012091
:101AF0004A4BE01D19184D482B3009F0C8FF2BE068
:101B00004A48C08806280AD14848B0F80120434B0B
:101B1000E01D191845482D3009F0B9FF1CE0434875
:101B2000C08807280AD14148B0F801203B4BE01D8E
:101B300019183E482E3009F0AAFF0DE03B48C08836
:101B4000082809D13948B0F80120344BE01D191894
:101B50003648303009F09BFF641CAC42FFF458AFAC
:101B60003248D0F81F00324948603048D0F81F0092
:101B70003049314A127841F822002F480078401C41
:101B80002D49087008460078052821D100200870EA
:101B900001202A49087005212648FFF7D2FE0124BA
:101BA00009E0244800EB840090ED000A30EE080ABA
:101BB000B0EE408A641C032CF3D9B0EE080AC8EEDC
:101BC000000A1B48C0ED060A9FED160AB0EE408AD7
:101BD000BDEC028B70BD10B5002400BF40F2244163
:101BE0000D48001F03F0FCFC60B30B48001F048885
:101BF000001D048800200D4908640021054804F0F8
:101C00000DFBFFF7F6FE0E49024804F080FB1AE0D8
:101C100000180240406402400414014028020020E1
:101C2000EFD400080000000088600240A0020020FD
:101C3000E40200201C030020420000203F0000209E
:101C4000400F001007E078210D4804F008FB012147
:101C50000B4804F0E3FA00BF10BD70B505460C4612
:101C600000260DB1022C00D870BD611EFF2228464F
:101C7000FFF799FE0646601E2E5400BFF4E70000F1
:101C80004064024000BFF948C068401CF749C86082
:101C9000F748C069401CF649C861F648D0F8A00072
:101CA000401CF449C1F8A000F348D0F8A000401C43
:101CB000F149C1F8A000F148806C401CEF498864EC
:101CC000EF48006C401CEE490864002012E000EB75
:101CD000400101EB0011EB4A02EB8101896C491CC8
:101CE00000EB400202EB0012E64B03EB8202916430
:101CF000411CC8B20428EADBDC48C0680A2808D3C3
:101D00000121E148006806F01AFB0020DF49086065
:101D100002E00120DD490860D548C0690A2809D9D8
:101D20000221D948006806F00AFB0020D749091DA6
:101D3000086003E00120D549091D0860CD48D0F8AE
:101D4000A0000A2809D90421CF48006806F0F7FA54
:101D50000020CE490831086003E00120CB4908315A
:101D60000860C548D0F8A0000A2809D90821C6484B
:101D7000006806F0E4FA0020C4490C31086003E072
:101D80000120C2490C310860BC48806C0A280AD97D
:101D90004FF48071BC48006806F0D1FA0020BB49BE
:101DA0001031086003E00120B84910310860B448E0
:101DB000006C0A280AD94FF40071B348006806F095
:101DC000BEFA0020B1491831086003E00120AF4994
:101DD0001831086000241CE004EB440000EB041000
:101DE000A84901EB8000806C0A280CD9201D012233
:101DF00002FA00F1A448006806F0A1FA0020A34905
:101E00001431086007E00120A04914310860601C0B
:101E1000C4B2042CE0DB00BF0A2007F0EAFF32E77F
:101E20001FB500BF08F02DFB039000BF00226946DC
:101E30009748006807F071F900219648006806F09D
:101E400023FC044604F0020002282BD10120924911
:101E500008609249C1F8800291480068012808D1C1
:101E60008F4808300068012803D141F65830ADF89A
:101E70000000002008E08A49096819B90121894A4F
:101E8000116003E0411CC8B21E28F4DB00BF844887
:101E9000006838B98248001D006818B900207E49E2
:101EA000091F086004F0010088B3BDF80000BDF808
:101EB00002100844BDF80410084400B2714948807B
:101EC000BDF800004042BDF802100844BDF80410FF
:101ED000084401B26B48A0F84E10BDF80000BDF8F0
:101EE00002100844BDF80410401A01B26548A0F879
:101EF0009A10BDF800004042BDF802100844BDF839
:101F00000410401A01B25F48A0F8E6100BE0FFE7AA
:101F100000205C49488000215A48A0F84E10A0F8E3
:101F20009A10A0F8E610082103A807F0FEFE7DE74E
:101F300000BF4FF0FF315C48006806F0BFFE5B4811
:101F400001F096FEF5E786B000BF4FF0FF3201A921
:101F50005748006807F0E1F800BF00BFF5E786B01A
:101F600000BF4FF0FF3201A95248006807F0D5F8D2
:101F70000198A0F20120072876D2DFE800F00415CE
:101F8000293D51639D009DF812109DF8110041EA12
:101F9000002000B23B4908800020886410213A48A4
:101FA000006806F071FB9AE09DF812109DF8110090
:101FB00041EA002000B23349A1F84C000021314829
:101FC000C0F8941020213048006806F05DFB86E0E0
:101FD0009DF812109DF8110041EA002000B2294935
:101FE000A1F8980000212748C0F8E01040212648B9
:101FF000006806F049FB72E09DF812109DF8110090
:1020000041EA002000B21F49A1F8E40000211D4868
:10201000C0F82C1180211C48006806F035FB5EE0FA
:102020009DF810009DF80F1040EA012000B2114900
:10203000C8800020C1F8A00004211348006806F001
:1020400023FB4CE09DF810009DF80F1040EA0120A2
:1020500000B20949C8800020C1F8A00008210A4840
:10206000006806F011FB3AE038E00000E4010020CF
:1020700028060020AC040020500500206004002049
:10208000A002002030030020A00000208402434270
:10209000B40000209C000020848242420080424222
:1020A000000241429002424284000020F4050020D8
:1020B000AC000020A80000209DF812109DF811002F
:1020C00041EA002000B2FE490880002088644FF4F5
:1020D0008071FC48006806F0D7FA00E000BF40E7D6
:1020E000F8B5074600240025082608F0CAF9009034
:1020F0000821684607F019FEF8BD2DED048B88B065
:10210000002403220021012006F0EEFBEE490860C6
:1021100003220021012006F0E7FBEC49086000BF24
:102120004FF0FF31E848006806F0C8FD0321E84899
:10213000006806F0A9FAE748006807F029FC0220C9
:10214000E5490870FEF73FFE00BFE44802F070F971
:10215000E24801F08DFD641CE04890ED030A10EEAA
:10216000101A08460BF048F941EC190BB0EE490A79
:10217000F0EE690A0AF068FAB0EE408AF0EE608A82
:102180009FEDD70B53EC102B51EC180B0AF03CFFD2
:10219000DBD3D24890ED050A10EE101A08460BF07A
:1021A0002BF941EC190BB0EE490AF0EE690A0AF07E
:1021B0004BFAB0EE408AF0EE608A9FEDCB0B53EC09
:1021C000102B51EC180B0AF01FFFBED30A2CBCDBFE
:1021D000FEF73FFE0120C0490870811EBB48006821
:1021E00006F06CFD0220BC490870C148C088C04997
:1021F0000881C048C088BF490881142103A809F09C
:10220000C5FCBB48B0F906000390BA48B0F9060017
:102210000490B248406A0590B048C06A0690AF4842
:10222000806A0790052203A9B348FFF7C0F9FEF7BB
:10223000EDFD0020A8490870A64804210023CA012A
:10224000CDE90010ADA1B24807F054FB68E70146A4
:1022500039B39B4AB2F90020642A0EDAAD4A1268FB
:10226000521CAC4B1A601A461268282A05DD01225E
:10227000A94B1A700022A74B1A60A74A1278012AAC
:102280000FD1A64A1268521CA44B1A60A4491A46E0
:1022900012680A2A05DD00229F4B1A709F4B1A60B4
:1022A0000146874A5180704710B500218548006873
:1022B00006F0EAF9044604F40070B0F5007F27D177
:1022C0009848C07A012804D002280BD003281DD1D9
:1022D00012E09448B0F82700D72802DD0020FFF76D
:1022E000B6FF14E08F48B0F82700B0F5A87F02DBF6
:1022F0000020FFF7ACFF0AE08A48B0F82700B0F5ED
:10230000E47F02DB0020FFF7A2FF00E000BF00BF78
:1023100010BD08B500BF08F0B4F8009000BF002160
:102320008148006806F0B0F904460CB3012C16D0C1
:10233000022C0BD0032C23D178204FF080418863EE
:10234000486341F2FC20FFF782FF1AE078204FF04B
:102350008041886348630020FFF779FF11E0642023
:1023600001078863486341F2FC20FFF770FF08E033
:1023700064200107886348630020FFF768FF00E0DE
:1023800000BF00BFFFF790FF1421684607F0CDFCA7
:10239000C5E71CB503220021012006F0A5FA634918
:1023A000086003220021012006F09EFA60490860BF
:1023B00000BF4FF0FF315D48006806F07FFC5D48CC
:1023C000006807F0E5FA01205B490870FEF7FBFCA6
:1023D000C820C106486388634FF0FF315448006845
:1023E00006F06CFC022054490870FEF70FFDFA203D
:1023F00004E04FF0804148638863401E6428F8DAA7
:1024000000204D4908704B48032100234FF400720F
:10241000CDE9001049A14C4807F06CFAC9E700BFAC
:10242000FEE700BF00BF4FF0FF314848006806F0EC
:1024300045FC00204649C86102212248006806F098
:1024400023F9444800784349497840EA012040494B
:10245000497D40F2FF72511A08403D4908803D48CD
:102460004078C0103B49897840EA4110C0F30A0027
:10247000374948803748807880113649C97840EA22
:1024800081003449097940EA8120C0F30A003049CB
:1024900088803048007940102E49497940EAC110BF
:1024A000C0F30A002A49C8802A48407900118008F0
:1024B000087228484079C0F30110487225484BE063
:1024C00060040020A0000020900000209400002064
:1024D0009C0000207000002045000020F405002032
:1024E0009A9999999999B93F7B14AE47E17A843FBB
:1024F000AC040020500500200000060867696D62EA
:10250000616C436F6E74726F6C7461736B0000006A
:10251000E1200008D0000020D8000020D4000020D6
:1025200024FAFFFFA002002098000020880000206D
:102530008C000020540000204400002063616C697E
:102540007461736B000000001323000880000020FA
:1025500028060020140200208079FE49C97940EA4B
:10256000012000B2FC494881FA48007AF949497AC9
:1025700040EA012001B2F8488181F648807AF549A5
:10258000C97A40EA012001B2F348C181F148017BD8
:10259000F1480174EF48417BEF484174ED48807B7E
:1025A000EC49C97B40EA0121EB48418290F90900DE
:1025B000012879D0022802D0032876D1A2E0642035
:1025C000E6490860E648B0F9020000EE100AB8EEED
:1025D000C00AE148B0F90A0000EE900AF8EEE00AFD
:1025E0009FEDE01A00EEC10ABDEEC00A10EE100A1F
:1025F00000B2DB494880D848408A012803D141F223
:10260000883008800CE0D448408A022804D14EF675
:102610007840D349088003E00020D14988800880B1
:10262000CD48408AB0F5007F40D00DDC402818D05E
:1026300004DC102847D0202861D149E080281BD035
:10264000B0F5807F5BD122E0B0F5006F45D0B0F5EA
:10265000805F46D0B0F5005F47D0B0F5804F4ED1D7
:1026600048E0BE480068401EBC4908600846006853
:10267000B42800D1086043E0B8480068401CB7495E
:10268000086008460068642800D1086038E0B34854
:10269000001D0068401EB149091D08600846006819
:1026A000B42800D108602BE07DE096E0AB48001D27
:1026B0000068401CA949091D086008460068642894
:1026C00000D108601CE0A020A4490831086017E090
:1026D0006420A2490831086012E00120A249086084
:1026E0000EE00020A04908600AE001209E49091D73
:1026F000086005E000209C49091D086000E000BF5B
:1027000000BF6BE096209549086093480088A0F5CB
:10271000806000EB8000400000B2914988808E48C4
:102720004088A0F5806000EB8000400000B2088087
:102730008948B0F90400A0F5806000EE100AB8EEF8
:10274000C00ADFED8A0A20EE200ABDEEC00A10EEB4
:10275000100A00B248808048007A012805D1032180
:102760008348006805F090FF17E07B48007A032853
:102770000AD102217E48006805F0E1FD01217C4874
:10278000006805F081FF08E07348007A022804D150
:1027900003217748006805F0D2FD012175480068E3
:1027A00005F0CDFD1AE000206D4988800880488042
:1027B00001217048006805F067FF03216C4800683C
:1027C00005F062FF04216B48006805F05DFF0821F9
:1027D0006848006805F0B3FD00E000BF00BF0223B9
:1027E00000225F496448006806F038F95A48B0F999
:1027F0000000B0F5B67F0FD15748B0F90600B0F52C
:10280000B67F09D15D48007830B900231A461946D1
:102810005B48006806F022F94F48B0F9000040F22A
:102820009461884210D14C48B0F90600B0F5B67FEB
:102830000AD152480078012806D100231A461946C9
:102840005048006806F00AF94348B0F90000B0F5B6
:10285000B67F10D14048B0F9040040F2946188423C
:1028600009D14948007830B900231A46194647482B
:10287000006806F0F3F83848B0F9000040F29461BF
:1028800088427FF4D0AD3448B0F90400B0F5B67F8B
:10289000F7D13D4800780128F3D100231A461946A4
:1028A0003B48006806F0DAF8BDE508B500260027C9
:1028B00000BF00BF07F0E5FD0090B0EE081AF7EE8C
:1028C000000AB1EE0C0A4FF47A73DA0004213148A1
:1028D000FEF7C7F8002415E004EB440101EB0411F6
:1028E0002D4A02EB8101081DB7EE001ADFED2B0A1D
:1028F000B0EE000A4FF47A73DA000421FEF7B1F863
:10290000601CC4B2042CE7DBB9EE041ADFED240A24
:102910009FED240A4FF47A739A0003212248FEF7B0
:10292000A0F89FED1F1ADFED1E0A9FED200A4FF45D
:10293000FA635A0003211C484830FEF792F8BAEEB9
:10294000041ADFED1B0AB9EE0C0A4FF47A739A00F1
:1029500003212FE01402002028060020340C004040
:1029600048060020295C8F3D808242427B142A4128
:10297000980000209C000020B400002044000020AB
:10298000880000208C0000204500002090000020DE
:10299000940000206404002030030020CDCCCC3D06
:1029A000000000006666E6C0BC040020000048424B
:1029B0000AD7A3BCFE48FEF754F81FED071ADFED57
:1029C000FD0AB2EE010A4FF4FA635A000321F848F7
:1029D0004830FEF746F800BF0021F748006805F0D0
:1029E00053FE0546F2481038A0F85670B0F954204E
:1029F000B0F956105830FDF79BFFBDEEC00A10EE3F
:102A0000100A00B2ED494880ED48B0F90C20B0F949
:102A10000A101030FDF78CFFBDEEC00A10EE100A50
:102A200006B2E748A0F85660B0F95420B0F9561045
:102A30005830FDF77DFFBDEEC00A10EE100A00B25F
:102A4000DE490880DF48B0F90020B0F90210001D0F
:102A5000FDF76EFFBDEEC00A10EE100A00B2D749B6
:102A60008880002422E004EB440303EB0413DFF826
:102A700058C33CF9232004EB440303EB04130CEB91
:102A80008303B3F9021004EB440303EB04130CEBD0
:102A90008303181DFDF74CFFBDEEC00A10EE100AAF
:102AA00000B2CA4921F81400601CC4B2042CDADB5D
:102AB00005F0010060B1C14A40F2FF11C448FEF7C1
:102AC000EFFCC24A4FF40071C148FEF7E9FC0CE08C
:102AD000002008E00021B94A22F81010BB4A22F871
:102AE0001010411CC8B20428F4DBB84A4FF400713E
:102AF000B848FEF7D5FC0421684607F016F96BE7E5
:102B00001CB5FEF72FF9FEF727FA4FF4E13000F07D
:102B10005FFBFEF7A1FBFEF7BDFCFEF758FEFEF7DC
:102B200069FE01F017F9642007F063F9002400BF83
:102B3000A948B0F90200B0F5806F21D1A648B0F9DC
:102B40000000B0F5806F03D0A3480078A249487513
:102B5000642007F04EF9601CC4B2282C12DB00245C
:102B6000FEF70EF99D48062100238022CDE90010D2
:102B70009BA1A04806F0BEFE002006F009FF01E080
:102B8000FEF7EAF9322007F034F9D1E71CB505F079
:102B900026FB00220121084605F0A6FE96490860A2
:102BA00000221421012005F09FFE944908600022B4
:102BB0001421012005F098FE9149086000220821A7
:102BC000012005F091FE8F49086000220A210120B2
:102BD00005F08AFE8C49086003220021012005F0DF
:102BE00083FE8A49086003220021012005F07CFE53
:102BF0008749086005F096FB8649086005F092FB5E
:102C00006D49086005F08EFB834908608348042104
:102C100000238022CDE9001081A1844806F06AFEDD
:102C20008348022100234A02CDE9001081A1844893
:102C300006F060FE8348022100230A02CDE900105D
:102C400081A1844806F056FE8348032100234FF4F7
:102C50000072CDE9001081A1854806F04BFE854841
:102C6000042100238022CDE90010AFF230718248A8
:102C700006F040FE8148072100238022CDE90010A4
:102C80007FA1824806F036FE8148052100234FF4DB
:102C90009672CDE900107FA1824806F02BFE824893
:102CA000052100234FF49672CDE900107FA18348DF
:102CB00006F020FE8248052100238022CDE9001085
:102CC00080A1844806F016FE8348032100234FF4B8
:102CD0000072CDE9001081A1844806F00BFE844803
:102CE000032100234FF40072CDE9001081A1864832
:102CF00006F000FE05F09AFA00BF4FF480418348C9
:102D000001F0D7FE4FF4FA7007F073F8F5E71CB541
:102D10007F4802210023C822CDE900107DA1804810
:102D200006F0E8FD07F060FB1CBD4A78072A0BD2CD
:102D3000DFE802F0040B152CFAF9F800264A528A53
:102D4000824201D101224A700DE1234A528A824215
:102D500002D102224A7001E000224A7003E14A884F
:102D6000521C12B24A80B1F90220B2F5967F08DAFD
:102D7000194A528A824208D000224A8003224A70AD
:102D800003E000224A8006224A70ECE04A88521C86
:102D900012B24A80B1F902201E2A07DA0E4A528A7C
:102DA000824204D100224A800522BEE0BFE0C2E098
:102DB00060050020CDCC4C3D9C000020BE000020D2
:102DC000AC0400206004002030030020C600002076
:102DD00000640040006800402806002068000020D1
:102DE00050494443616C63756C6174655461736BE5
:102DF00000000000AB280008A4000020A80000206C
:102E0000AC000020B0000020B400002080000020B2
:102E10008400002098000020A00000206400002012
:102E2000627370696E69747461736B00012B0008C2
:102E300048000020646275737461736B00000000C9
:102E4000232400087C0000204B65795363616E5495
:102E500061736B001F240008540000206672694DE6
:102E60006F746572436F6E74726F6C7461736B0014
:102E70001323000850000020932300087400002052
:102E8000696D7563616C697461736B00FB20000888
:102E90005800002043616E31526563656976657440
:102EA00061736B005F1F00085C00002043616E329D
:102EB000526563656976657461736B00471F00082E
:102EC00060000020494D55526563656976657461FF
:102ED000736B0000311F00086C000020434D436FEE
:102EE0006E74726F6C7461736B000000211E0008B9
:102EF000780000204F66666C696E65646574656372
:102F0000747461736B000000851C0008001402409B
:102F10004C00002073746172745F7461736B000005
:102F20008D2B000816E00CE006E04A7003E000225A
:102F30004A8004224A7016E001220A7000224A7078
:102F400011E002220A701C4A528A824201D00022F9
:102F50004A7008E003220A70174A528A824201D05E
:102F600000224A7000BF00BF704701464888888031
:102F7000C8884880B1F90200B1F90420801A0F4ACC
:102F8000904203DA0888401C00B20880B1F90200C0
:102F9000B1F90420801A41F22C02904203DD088826
:102FA000401E00B20880B1F90200B1F90020C2EB66
:102FB000423210447047000028060020D4EFFFFF83
:102FC00070B504460D46FF20374908700846447026
:102FD0008570FE20C87000203449087012E000BFE0
:102FE0004021334802F0E6FA0128F9D12E482F4A51
:102FF0001278815C2E4802F02DFA2C480078401C93
:103000002A490870294800780428E8DB70BD0020B0
:1030100000BF10E02749095CFF290BD1254AC11DDB
:10302000515CFE2906D1411C1144234A0B681360F0
:1030300089889180401C0A28ECDB1F49B1F90010F7
:1030400000EE101AB8EEC00AB1EE400ADFED1B0A1E
:1030500080EE201A1A4981ED001A1749B1F90210C1
:1030600000EE101AB8EEC00AB1EE400ADFED130A06
:1030700080EE201A124981ED011A0F498988104A01
:10308000118111460989012904D1114691ED010AE6
:1030900081ED010A0A490989022904D1084991ED03
:1030A000010A81ED010A7047DF000020E3000020E3
:1030B0000048004070060020D90000200000C842EF
:1030C0005C06002010B507F058FC012801D005F07F
:1030D000C9F810BD70B50446042001F0BFFB3248AA
:1030E000047025464FF47A70454301202F4908802B
:1030F0004FF0E020006940F002004FF0E02108614D
:1031000008464561006940F00100086170BD70B576
:10311000034600224FF0E0267569234E367803FB04
:1031200006F44FF0E026B16910E04FF0E026B069F8
:1031300088420BD0884202D20E1A324402E02E1A84
:103140000E4432440146A24200D300E0EDE700BF46
:1031500070BD70B5044607F010FC012811D013486B
:103160000088844206DB1148008894FBF0F528466D
:1031700006F03FFE0D48008894FBF0F100FB114083
:1031800084B24FF47A7104FB01F0FFF7C0FF70BD09
:1031900030B50446002504E04FF47A70FFF7B7FF1E
:1031A0006D1CA542F8D330BDE4000020E6000020ED
:1031B000014600BF00207047C2B2254B1A8000BFF5
:1031C000234A121F128802F04002002AF8D07047EA
:1031D00010B586B004460121082001F084FE0121CB
:1031E000480401F0C7FE072205211A4801F065FCDA
:1031F00007220621174801F060FC02208DF8140018
:103200008DF8150000208DF8160001208DF81700AC
:103210006020049004A90F4801F0C4FB0094002032
:10322000ADF80400ADF80600ADF80800ADF80C00EC
:103230000C20ADF80A0069460548001F02F057F857
:1032400001210348001F02F0DAF806B010BD0000AB
:1032500004440040000C0240F0EE400AF6EE001A72
:1032600060EEA11AB0EE611AB0EE600A10EE100A1C
:10327000FE49A1EB600000EE100A21EE002AF7EEF5
:10328000081A42EE401A61EE801AB0EE610A7047E9
:1032900030B587B00546F64A0DF11A0006A9031F9E
:1032A000CDE90102009105AA891F04A800F0B7FF2B
:1032B00000241DE0032C0BDA04A830F9140000EE02
:1032C000100AB8EEC00A05EB840080ED000A0EE09B
:1032D00004A830F9140000EE100AB8EEC00ADFEDC1
:1032E000E50A80EE201A05EB840080ED001A641CCC
:1032F000062CDFDB07B030BD00B52DED108B9BB089
:10330000F0EE40AAB0EE60BAF0EE41BAB0EE61DA8B
:10331000B0EE42CAF0EE62CAB0EE43AAF0EE638AA3
:10332000B0EE449AD44890ED000AD0ED000A20EEA9
:10333000200A8DED0B0A90ED000AD048D0ED000A6E
:1033400020EE200A8DED0A0ACB4890ED000ACC4809
:10335000D0ED000A20EE200AF0EE40EAC64890EDDB
:10336000000AC848D0ED000A20EE200A8DED090AB7
:10337000C24890ED000AD0ED000A20EE200A8DED43
:10338000080A90ED000ABE48D0ED000A20EE200A9F
:103390008DED070AB94890ED000ABA48D0ED000A51
:1033A00020EE200AB0EE40FAB54890ED000AD0EDCC
:1033B000000A20EE200A8DED060A90ED000AB148C1
:1033C000D0ED000A20EE200A8DED050A90ED000AEE
:1033D000D0ED000A20EE200A8DED040A01F0EDF890
:1033E000A949086008460068A8490968884210D2BF
:1033F000A64800684FF6FF71081AA34909680844F7
:1034000000EE100AB8EE400ADFEDA10AC0EE209AE5
:103410000CE09D4800689D490968401A00EE100ABA
:10342000B8EE400ADFED9A0AC0EE209A964800688E
:10343000964908606DEE0D0A4CEE0C0A4CEEAC0A93
:10344000B0EE600AFFF708FFB0EE408A2DEE080AE2
:10345000B0EE40DA2CEE080AB0EE40CA2CEE880A34
:10346000F0EE40CA6AEE0A0A48EEA80A49EE090AD6
:10347000B0EE600AFFF7F0FEB0EE408A2AEE080ACE
:10348000B0EE40AA28EE880AF0EE408A29EE080A3B
:10349000B0EE409AB0EE000A6AEE000A9DED060A10
:1034A000B6EE001A31EE401A9DED040A31EE400AE4
:1034B00020EE800AF0EE000A68EEA01ADDED070AA1
:1034C0009DED091A70EEC10A01EEA00AF0EE000AA5
:1034D00069EE200A3FEE2E1A00EE810A8DED1A0ADF
:1034E000B0EE000A2AEE001A9DED070ADDED090A8A
:1034F00030EE200A21EE000AF0EE000A28EEA01AB3
:10350000DDED080AF6EE001A71EEE01ADDED040AB0
:1035100071EEE00A01EE200AF0EE000A69EE201AD0
:10352000DDED050A9DED0A1A70EEC10A01EEA00A52
:103530008DED190AB0EE000A2AEE000A7FEE6E0A3F
:1035400020EE200AF0EE000A68EEA01ADDED050A72
:103550009DED0A1A70EE810A01EEA00AF0EE000A53
:1035600029EE201ADDED080AF6EE001A71EEE01AD7
:10357000DDED060A71EEE00AF0EE40DA41EE20DA07
:103580009DED1A0A60EE000A9DED190A40EE000A50
:1035900010EE901A084609F02FFFCDE900019DEDCD
:1035A000000B09F05BF88DED020B9DED020B51EC69
:1035B000100B09F099F90FEE900AB0EE6DEA3FEEAC
:1035C0006E0AF0EE000A20EE200A8DED180A9DED3D
:1035D0000A0ADDED050A30EE200AF0EE000A20EEC0
:1035E000200A8DED170A9DED0B0ADDED080A70EE3D
:1035F000600A9DED060A70EEC00A9DED040A30EEE9
:10360000800A8DED160AB0EE000A6FEE800A9DED7D
:10361000060AB6EE001A31EE401A9DED040A31EEAC
:10362000400A20EE800AF0EE4EDAF0EE000A6DEE6F
:10363000A00A3FEE6E1A00EE810A8DED150AB0EE7B
:10364000000A2FEE801A9DED070ADDED090A30EE23
:10365000600A21EE000AF0EE4EDAF0EE000A6DEE9E
:10366000A01ADDED0A0A9DED051A13E0DF59375F58
:10367000F405002033330342F8000020FC00002052
:10368000000100200401002014010020100100208E
:103690000024F44970EE810A01EEA00A8DED140AAF
:1036A000B0EE000A2FEE800A7EEE8F0A20EE200A8E
:1036B000F0EE4EDAF0EE000A2DEEA01ADDED080A6B
:1036C000F6EE001A71EEE01ADDED060A71EEE00A80
:1036D00001EE200A8DED130A9DED160A6CEE000A2C
:1036E0009DED170A4CEEC00A9DED130A28EE801AD4
:1036F0009DED140A09EE401A30EE810A8DED120A92
:103700009DED180A6CEE800A9DED160A4DEE400AFA
:103710009DED150A29EE001A9DED130A0AEE401AD6
:1037200030EE810A8DED110A9DED170A6DEE000A4B
:103730009DED180A4CEE400A9DED140A2AEE001A7F
:103740009DED150A08EEC01A30EE810A8DED100AC3
:103750009DED120AB5EEC00AF1EE10FA61D09DEDB2
:10376000110AB5EEC00AF1EE10FA5AD09DED100A1A
:10377000B5EEC00AF1EE10FA53D09DED120ADFED5E
:10378000FE0A60EE200AFD4890ED000A00EEA90A4C
:1037900080ED000A9DED110ADFEDF70A60EE200AC8
:1037A000F74890ED000A00EEA90A80ED000A9DEDB1
:1037B000100ADFEDF10A60EE200AF24890ED000AEF
:1037C00000EEA90A80ED000A9DED120AB0EE001A83
:1037D000F0EE6A0A41EE000AE84890ED000A30EE89
:1037E000800AF0EE40AA9DED110AB0EE001AF0EE4C
:1037F0004B0A41EE000AE24890ED000A30EE800AE2
:10380000B0EE40BA9DED100AB0EE001AF0EE6B0A71
:1038100041EE000ADB4890ED000A30EE800AF0EE3F
:1038200040BAD94890ED000AB1EE400A20EE2A0ACB
:10383000D648D0ED000A00EECB0AD54890ED001A2C
:10384000F0EE400A41EE6B0AD24890ED000A00EE1D
:10385000A90A8DED0F0A90ED000A20EE2A0ACB4846
:10386000D0ED000A00EEAB0AC94890ED001AF0EE68
:10387000400A41EE4B0AC44890ED000A00EEA90A46
:103880008DED0E0AC34890ED000A20EE0B0ABE48EB
:10389000D0ED000A00EEEB0ABD4890ED001AF0EE04
:1038A000400A41EE2A0AB94890ED000A00EEA90A42
:1038B0008DED0D0AB74890ED000A20EE2B0AB248B4
:1038C000D0ED000A00EE8B0AB04890ED001AF0EE41
:1038D000400A41EE6A0AAE4890ED000A00EEA90ADD
:1038E0008DED0C0ADDED0F0A20EEA01ADDED0E0ABB
:1038F00000EEA01ADDED0D0A00EEA01ADDED0C0AB7
:1039000000EEA01AB0EE410AFFF7A6FCB0EE408A26
:103910009DED0F0A20EE080A9E4880ED000A9DEDFD
:103920000E0A20EE080A984880ED000A9DED0D0A67
:1039300020EE080A954880ED000A9DED0C0A20EE65
:10394000080A934880ED000A1BB0BDEC108B00BD47
:1039500030B52DED0C8B87B005460C469FED8E0AD9
:103960008DED020A9FED8C0A8DED010A9FED8A0A0A
:103970008DED000A2046FFF78BFC94ED050ADFED84
:10398000870A20EE200ADFED860A80EE201AB0EECC
:10399000418A94ED040ADFED810A20EE200ADFED72
:1039A000800A80EE201AF0EE418A94ED030ADFEDE2
:1039B0007B0A20EE200ADFED7A0A80EE201AB0EEB4
:1039C000419A94ED020AF0EE402A94ED010AB0EE1D
:1039D000402A94ED000AF0EE401A9FED6F4ADFEDA9
:1039E0006E3A9FED6D3AB0EE481AF0EE680AB0EE0E
:1039F000490AFFF781FC674890ED000A8DED030A44
:103A0000614890ED000A8DED040A604890ED000ACF
:103A10008DED050A5E4890ED000A8DED060A9DEDDC
:103A2000050AF8EE000A20EE200ADDED050A20EE78
:103A3000200ADDED060AB0EE001A60EE810A9DED67
:103A4000061A00EEC10AF7EE000A30EE200A10EE68
:103A5000101A084609F0D0FC41EC1C0B9DED040A3D
:103A6000F0EE000A20EE200ADDED050A20EE200A25
:103A7000DDED030AB0EE001A60EE810A9DED061A34
:103A800000EE810A10EE101A084609F0B5FC41EC70
:103A90001D0BB0EE4C1AF0EE6C1AB0EE4D0AF0EEC3
:103AA0006D0A08F0D9FCB0EE40BAF0EE60BA51EC05
:103AB0001B0B08F00CFF41EC1A0B9FED3A0B53EC7B
:103AC000102B09F0A3F941EC190B9FED380B53ECC7
:103AD000102B08F0EFFF41EC180B08F005FF00EE8B
:103AE000100A85ED000A9DED040AF8EE000A20EEAA
:103AF000200ADDED060A20EE200ADDED030AB0EE15
:103B0000001A60EE810A9DED051A00EE810A10EEA2
:103B1000101A084609F070FC41EC1C0BB0EE4C0A80
:103B2000F0EE6C0A08F07CF9B0EE40BAF0EE60BA44
:103B300051EC1B0B08F0CBFE41EC1A0B9FED190B5F
:103B400053EC102B09F062F941EC190B9FED170BA8
:103B500053EC102B08F0AEFF41EC180B08F0C4FE3C
:103B600000EE100A85ED010A9DED040AF8EE000A48
:103B700020EE200A1EE000000AD7233CEC000020C3
:103B8000F0000020F4000020FC00002000010020D4
:103B900004010020F800002000000000DB0F494075
:103BA0000000344300000000008066400000006018
:103BB000FB210940DDED040A20EE200ADDED050AB7
:103BC000B0EE001A60EE810A9DED051A00EEC10A02
:103BD000F7EE000A30EE200A10EE101A084609F03F
:103BE0000BFC41EC1B0B9DED050AF0EE000A20EEEC
:103BF000200ADDED060A20EE200ADDED030AB0EE14
:103C0000001A60EE810A9DED041A00EE810A10EEA2
:103C1000101A084609F0F0FB41EC1C0BB0EE4B1AF1
:103C2000F0EE6B1AB0EE4C0AF0EE6C0A08F014FCE1
:103C3000B0EE40AAF0EE60AA1FED260B53EC102B5D
:103C400051EC1A0B09F0E2F841EC190B1FED290BAE
:103C500053EC102B08F02EFF41EC180B08F044FE3B
:103C600000EE100A85ED020A07B0BDEC0C8B30BDEA
:103C700010B58CB00446002009900A900B902421C6
:103C8000684607F083FF694609A8FFF761FE9DEDCE
:103C9000030A84ED030A9DED040A84ED040A9DEDF8
:103CA000050A84ED050A9DED0A0A84ED060A9DEDDC
:103CB0000B0A84ED080A94ED070AD4ED050A9FED7E
:103CC000041A00EE810A84ED070A0CB010BD000052
:103CD0006F12833A1CB50121022001F004F94FF460
:103CE0008070009000208DF8040003208DF80500FE
:103CF00002208DF8070069461B4800F053FE1CBDEA
:103D000008B517208DF8000006208DF8010000206E
:103D10008DF8020001208DF80300684600F051FD87
:103D200008BD1CB50121880301F035F908210120E7
:103D300001F03DFA4FF48070009000208DF80400EF
:103D40000C208DF8050001208DF80600684603F070
:103D500081FF1CBD10B500F024FCFFF7BBFFFFF78F
:103D6000CFFFFFF7DEFF10BD0004024070B505462F
:103D70000C460020F949086005F07F00F8490870FA
:103D80000846007800F0CBFCF5480470007800F09D
:103D9000C6FC0120F349C1F89802002070BD10B59F
:103DA00004460020ED49086044F08000EE490870A8
:103DB0000846007800F0B3FC44F0800000F0AFFC4F
:103DC000EA4908700120E749C1F89802E7480078FD
:103DD00010BD10B5044644F08000E549087008465F
:103DE000007800F09CFCE34908700846007810BD9C
:103DF00070B504460D4600212A20FFF7B7FF0220C8
:103E0000FFF7A7F921462920FFF7B0FF0220FFF7AF
:103E1000A0F929466420FFF7A9FF0220FFF799F9CE
:103E200081212A20FFF7A2FF0A20FFF792F970BD37
:103E300070B5044621463220FFF798FF0A20FFF7AD
:103E400088F980213420FFF791FF0A20FFF781F9DC
:103E50003520FFF7A4FF054600213420FFF786FF39
:103E60000A20FFF776F9284670BD70B504460E4665
:103E7000154621462820FFF779FF0220FFF769F950
:103E80000A212920FFF772FF0220FFF762F90121C2
:103E90006420FFF76BFF0220FFF75BF944F080011D
:103EA0002520FFF763FF0220FFF753F93146262054
:103EB000FFF75CFF0220FFF74CF903213420FFF7E6
:103EC00055FF0220FFF745F903216720FFF74EFF5A
:103ED0000220FFF73EF981212A20FFF747FF062045
:103EE000FFF737F945F080012720FFF73FFF072054
:103EF000FFF72FF970BD10B530216A20FFF736FFAC
:103F00000A20FFF726F90D212420FFF72FFF0A20B2
:103F1000FFF71FF90E212820FFF728FF0A20FFF7DF
:103F200018F98E213120FFF721FF0A20FFF711F940
:103F300001210B20FFF75CFF0020FFF779FF10281D
:103F400001D0012010BD0A20FFF703F900210A204B
:103F5000FFF74EFF0A20FFF76BFF08B10220F1E7E1
:103F60000A20FFF7F6F800210B20FFF741FF0B2096
:103F7000FFF75EFF08B10320E4E70A20FFF7E9F846
:103F800024214120FFF734FF4120FFF751FF24286F
:103F900001D00420D6E70A20FFF7DBF8C021422039
:103FA000FFF726FF4220FFF743FFC02801D005207E
:103FB000C8E70A20FFF7CDF800212A20FFF7D6FE38
:103FC0000A20FFF7C6F800213420FFF7CFFE0A20B1
:103FD000FFF7BFF8062203210E20FFF746FF6420FB
:103FE000FFF7B7F80020ADE710B50446E006010E74
:103FF0001C20FFF7BBFE10BD10B50446E006010E05
:104000001B20FFF7B3FE10BD2DE9F04304460D461B
:10401000DDE9076700200021012041E0DFF858C1F9
:104020003CF81080A0F1010CDFF84C9129F81C80BD
:1040300009F1160C3CF81090A0F1010CDFF8388162
:1040400008F1160828F81C9008F1160C3CF810909E
:10405000A0F1010C08F1160828F81C9008F1160CC4
:104060003CF81090A0F1010C08F1160828F81C90FB
:1040700008F1160C3CF81090A0F1010C08F116089C
:1040800028F81C9008F1160C3CF81090A0F1010CD7
:1040900008F1160828F81C9000F1010C0CF0FF0044
:1040A0000A28BBDBDFF8D0C0ACF81240ACF82850CF
:1040B000ACF83E20ACF85430ACF86A60ACF88070D4
:1040C000002008E0DFF8B0C03CF910C0614400F106
:1040D000010C0CF0FF000A28F4DB4FF00A0C91FBF6
:1040E000FCFC0FFA8CFCDFF89080A8F814C00021CB
:1040F00000200AE0DFF880C00CF1160C3CF910C07B
:10410000614400F1010C0CF0FF000A28F2DB4FF0D3
:104110000A0C91FBFCFC0FFA8CF8DFF85CC0ACF8E1
:104120002A80002100200AE0DFF84CC00CF12C0CA2
:104130003CF910C0614400F1010C0CF0FF000A28AA
:10414000F2DB4FF00A0C91FBFCFC0FFA8CF8DFF865
:1041500028C0ACF840800021002018E0988242423C
:1041600052010020008042425401002053010020EF
:104170005601002055010020AE060020DFF844C49F
:104180003CF910C0614400F1010C0CF0FF000A285A
:10419000F4DB4FF00A0C91FBFCFC0FFA8CF8DFF813
:1041A00024C4ACF1420CACF85680002100200AE097
:1041B000DFF810C40CF1160C3CF910C0614400F19A
:1041C000010C0CF0FF000A28F2DB4FF00A0C91FB07
:1041D000FCFC0FFA8CF8DFF8ECC3ACF1420CACF845
:1041E0006C80002100200AE0DFF8D8C30CF12C0C11
:1041F0003CF910C0614400F1010C0CF0FF000A28EA
:10420000F2DB4FF00A0C91FBFCFC0FFA8CF8DFF8A4
:10421000B4C3ACF1420CACF88280BDE8F0832DE968
:10422000F04786B005460E4617469846DDE90E9AD9
:10423000109C0020E4490860BB2000F070FA3B208D
:10424000FFF7C7FD8DF808003C20FFF7C2FD8DF891
:1042500009009DF809009DF8081040EA012000B20D
:10426000DA4908803D20FFF7B4FD8DF80A003E20B2
:10427000FFF7AFFD8DF80B009DF80B009DF80A10BD
:1042800040EA012000B2D24908803F20FFF7A1FD9B
:104290008DF80C004020FFF79CFD8DF80D009DF877
:1042A0000D009DF80C1040EA012000B2C9490880B9
:1042B0004120FFF78EFD8DF80E004220FFF789FDAB
:1042C0008DF80F009DF80F009DF80E1040EA0120B8
:1042D00000B2C149C8804320FFF77BFD8DF8100074
:1042E0004420FFF776FD8DF811009DF81100BB49C1
:1042F0000989401A9DF8101040EA012000B2B8491F
:1043000008804520FFF765FD8DF812004620FFF775
:1043100060FD8DF813009DF81300B0494989401ADB
:104320009DF8121040EA012000B2AE4908804720F3
:10433000FFF74FFD8DF814004820FFF74AFD8DF878
:1043400015009DF81500A5498989401A9DF814109B
:1043500040EA012000B2A44908800120A349C1F825
:104360009802A148B0F900009E49B1F90010CDE9CA
:1043700000109B48B0F900309648B0F900209448EE
:10438000B0F900109148B0F90000FFF73DFE8D48EC
:104390004238808A28808B484238408D3080894856
:1043A0004238B0F84000388086484238B0F85600AD
:1043B000A18C401A00B2A8F8000082484238B0F838
:1043C0006C00218D401A00B2A9F800007D484238E7
:1043D000B0F88200A18D401A00B2AAF8000006B021
:1043E000BDE8F08770B5DDE90445764E423EB68AF9
:1043F0000680744E423E768D0E80724E423EB6F876
:10440000406016806F4E423EB6F85660103E36B29F
:104410001E806C4E423EB6F86C60761D36B2268029
:10442000684E423EB6F88260223636B22E8070BDAB
:104430002DE9F04F87B00446002500260027A84646
:10444000A946AA46AB4600BF11E06420FEF75FFE16
:10445000674A0DF11A0006A9031FCDE90102009178
:1044600005AA891F04A8FFF7DAFE681CC5B2322D21
:10447000EBDB002523E0C820FEF749FE5C4A0DF186
:104480001A0006A9031FCDE90102009105AA891FA0
:1044900004A8FFF7C4FEBDF910008144BDF9120065
:1044A0008244BDF914008344BDF916000644BDF9E9
:1044B00018000744BDF91A008044681CC5B2642D79
:1044C000D9DB642096FBF0F06062642097FBF0F08B
:1044D000A062642098FBF0F0E06207B0BDE8F08FC6
:1044E00010B5024600210AE0424C34F911409442D2
:1044F00003D1404C34F9113003E04C1CE1B20829DF
:10450000F2DB00BFD41A20B210BD10B586B0002473
:104510001422394901A807F0FFFA6420FEF719FEBA
:1045200000F0F4F86420FEF714FE7520FFF737FC66
:10453000702805D031A007F0ADF9FF2006B010BDFE
:1045400000240DE001AA02EB4402517801AA12F8FE
:104550001400FFF70BFC0120FEF7FBFD601CC4B24A
:104560000A2CEFDB0020E9E70EB50121082000F05E
:1045700001FD4FF0FF3001905920ADF80000002000
:10458000ADF80800ADF8020001211F4802F056F80E
:1045900069461D4801F0E7FF01211B4802F06CF855
:1045A0000EBD10B502E0C820FEF7D3FDFFF7ADFF4A
:1045B000FF28F8D0FFF7D8FF10BD1348243000685B
:1045C00070470000F0060020988242421E01002041
:1045D00020010020220100207A06002094060020FD
:1045E00024010020260100202801002000804242F2
:1045F000F40500202A010020F0D500086572726FD2
:10460000722031410D0A0000000C00401CB5012150
:10461000202000F068FC4FF46070009002208DF8BC
:10462000040000208DF8060003208DF8050000200E
:104630008DF8070069464E4800F0B4F9402000901C
:1046400001208DF8040000208DF8060003208DF86D
:10465000050000208DF807006946454800F0A2F9E2
:1046600005220721424800F028FA05220921404886
:1046700000F023FA052208213D4800F01EFA1CBD77
:1046800000B585B00121080500F085FC0121080571
:1046900000F0D6FC00214FF4801000F0D1FC002087
:1046A000ADF800004FF48270ADF802000020ADF8C4
:1046B0000400ADF80600ADF808004FF40070ADF846
:1046C0000A003020ADF80C000020ADF80E000A20E2
:1046D000ADF810006946274802F036FD0121254853
:1046E00002F02CFE05B000BD10B50446214800883C
:1046F0004FF6C77108401F490880084600882043CC
:10470000088001211B4802F019FE10BD10B5FFF70B
:104710007DFFFFF7B5FF3020FFF7E6FF10BD70B556
:1047200005460126002422E0012E0FD10221114866
:1047300002F082FE50B1002401E0601CC4B2C82C1B
:10474000FBDB29460B4802F075FE00267EB90121ED
:10475000084802F071FE50B1002401E0601CC4B2B0
:10476000C82CFBDB034802F062FEC0B270BDDBE781
:1047700000140240005001400948804709480047A2
:10478000FEE7FEE7FEE7FEE7FEE7FEE7FEE7FEE701
:10479000FEE7FEE704480549054A064B704700005E
:1047A0008D070008AD01000800350120003B012005
:1047B000003701200037012032490143324A11609D
:1047C000704770B5002100230F22C4781CB32E4C13
:1047D000246804F4E064C4F5E064C4F30721C1F183
:1047E0000404E3B20A4144789C40E1B28478144066
:1047F00021430C07210E254C05786155047804F0FF
:104800001F050124AC4005786D11AD0005F1E025D0
:10481000C5F8004109E0047804F01F050124AC400C
:104820001B4D0678761145F8264070BD194A0A409E
:104830000243154B1B1F1A60704739B1124A121DF3
:1048400012680243104B1B1D1A6006E00E4A121D2F
:10485000126882430C4B1B1D1A607047042808D154
:104860004FF0E021096941F004014FF0E0221161AD
:1048700007E04FF0E021096921F004014FF0E02248
:10488000116170470000FA050CED00E000E400E063
:1048900080E100E080FFFF1F10B504469848844285
:1048A00008D10121084600F087FB0021012000F01B
:1048B00083FB76E09348844208D10121022000F076
:1048C0007BFB0021022000F077FB6AE08E488442E7
:1048D00008D10121042000F06FFB0021042000F02A
:1048E0006BFB5EE08948844208D10121082000F07A
:1048F00063FB0021082000F05FFB52E08448844203
:1049000008D10121102000F057FB0021102000F0F9
:1049100053FB46E07F48844208D10121202000F06B
:104920004BFB0021202000F047FB3AE07A4884420C
:1049300008D10121402000F03FFB0021402000F081
:104940003BFB2EE07548844208D10121802000F015
:1049500033FB0021802000F02FFB22E070488442CE
:1049600008D10121801500F027FB0021A01500F0DF
:1049700023FB16E06B48844208D10121401500F06A
:104980001BFB0021601500F017FB0AE0664884421B
:1049900007D10121001500F00FFB0021201500F0C8
:1049A0000BFB10BDF0B50A4600210023002400BF18
:1049B0003DE0012505FA01F3156805EA03049C4270
:1049C00034D105684F000326BE40B5430560157914
:1049D0004E00B5400668354305601579012D02D0BB
:1049E0001579022D16D185684F000326BE40B543C8
:1049F000856055794E00B5408668354385604568C9
:104A000001268E40B5434560456896798E40B6B222
:104A100035434560C5684F000326BE40B543C560B9
:104A2000D5794E00B540C6683543C560491C10298C
:104A3000BFD3F0BD4FF6FF710160002101714171DC
:104A40008171C171704708B54FF480320092009AAD
:104A50000A430092009AC261C161009AC261C269B0
:104A60000092C269009208BD0246002013690B4003
:104A70000BB1012000E0002070470146086980B2B8
:104A800070470246002053690B400BB1012000E043
:104A9000002070470146486980B270470183704723
:104AA000418370470AB1018300E04183704741614F
:104AB000704742694A4042617047F0B500230024C4
:104AC0004D07ED0E02FA05F3CE1000F1200555F862
:104AD00026504E07F70E0F26BE40B543CF1000F10B
:104AE000200646F82750CE1000F1200555F8265034
:104AF00045EA0304CE1000F1200545F82640F0BD3C
:104B0000000002400004024000080240000C024085
:104B1000001002400014024000180240001C024035
:104B2000002002400024024000280240F6480068AD
:104B300040F00100F44908600020F34908310860A2
:104B4000F1480068F1490840EF490860F048091D44
:104B50000860F048EC4984310860ED481038091DC0
:104B60000860E948006820F48020E74908600020D8
:104B7000E5490C310860E4498C3108607047012137
:104B8000E14A921C117011460870704710B5014639
:104B90000022002300204A11012A02D1DA4C2368A6
:104BA00008E0022A03D1D84C7034236802E0D64CC6
:104BB0007434236801F01F02012494401C400CB19E
:104BC000012000E0002010BD38B500200090002436
:104BD000002500BF3120FFF7D9FF05460098401C93
:104BE00000900098B0F5A04F01D0002DF2D03120F8
:104BF000FFF7CCFF08B1012400E00024204638BDB7
:104C000001460020C04A106820F0F80040EAC100C8
:104C100010607047C049086070470021BA4A70327E
:104C200011701170012802D004280AD104E001217A
:104C3000B54A7032117005E00521B34A7032117027
:104C400000E000BF00BF7047B4490860704770B50E
:104C5000049C41EA82150126C6EB530645EA064547
:104C6000054345EA0465A84E361D356070BDAA4966
:104C70000866704710B5830143EA016343EA027393
:104C8000A14C8434236010BDA3498866704710B5D9
:104C9000830143EA016343EA02739B4C8834236037
:104CA00010BD9D49086770479B49C864704702461C
:104CB0000020954B0833186820F0EC6042EA0103AD
:104CC0001843914B083318607047024600208E4B02
:104CD0000833186820F0784042EA010318438A4BF1
:104CE00008331860704701460020874A0832106870
:104CF00020F00300084310607047834808300068C4
:104D000000F00C007047014600207F4A083210680E
:104D100020F0F000084310607047014600207A4AF6
:104D20000832106820F4E0500843106070470146D4
:104D30000020754A0832106820F4604040EAC10043
:104D400010607047F0B500210022002402250026E3
:104D500002236D4F08373F6807F00C0121B1042989
:104D600005D0082937D105E06D4F076036E06D4F5B
:104D7000076033E0644F3F1D3F68C7F38056624FC2
:104D80003F1D3F6807F03F036EB1664FB7FBF3F777
:104D9000DFF874C10CF1040CDCF800C0CCF3881C03
:104DA00007FB0CF40CE05E4FB7FBF3F7DFF858C1DC
:104DB0000CF1040CDCF800C0CCF3881C07FB0CF4ED
:104DC000514F3F1D3F68C7F301477F1C7D00B4FB77
:104DD000F5F7076002E0524F076000BF00BF4A4F7F
:104DE00008373F6807F0F00109094F4F7A5C076800
:104DF000D7404760444F08373F6807F4E051890ABD
:104E0000494F7A5C4768D74087603F4F08373F6813
:104E100007F46041490B444F7A5C4768D740C7604C
:104E2000F0BD002100F44072B2F5407F0AD1364A4D
:104E30000832116821F4F8113C4A02401143324A09
:104E400008321160304A70321268C0F30B031A4303
:104E50002D4B70331A6070473049443908607047F1
:104E60002E49403908607047314908607047014653
:104E70000020254A8C32106820F01F004A1E104383
:104E8000214A8C3210607047014600201E4A8C3245
:104E9000106820F4F8504A1E40EA02201A4A8C3268
:104EA0001060704701460020174A8C32106820F4C9
:104EB000401008431060704701460020124A8C32AF
:104EC000106820F44000084310607047014600203D
:104ED0000D4A8C32106820F440300843106070474F
:104EE00014490860704739B1074A303212680243EA
:104EF000054B30331A6006E0034A303212688243B1
:104F0000014B30331A60704700380240FFFFF6EA69
:104F1000103000240030002000004742800E47423D
:104F20000024F400001BB70057010020FFFCFF0F16
:104F30005C014742E011474229B1934A126802439B
:104F4000914B1A6004E0904A126882438E4B1A60BB
:104F5000704739B18C4A121D126802438A4B1B1DDF
:104F60001A6006E0884A121D12688243864B1B1D98
:104F70001A60704739B1844A0C3212680243824B7E
:104F80000C331A6006E0804A0C32126882437E4B72
:104F90000C331A60704739B17B4A103212680243F1
:104FA000794B10331A6006E0774A10321268824358
:104FB000754B10331A60704739B1734A243A12683E
:104FC0000243714B243B1A6006E06F4A243A126890
:104FD00082436D4B243B1A60704739B16A4A203ACC
:104FE00012680243684B203B1A6006E0664A203A8A
:104FF00012688243644B203B1A60704739B1624AA1
:105000001C3A12680243604B1C3B1A6006E05E4A81
:105010001C3A126882435C4B1C3B1A60704739B1E2
:10502000594A143A12680243574B143B1A6006E07F
:10503000554A143A12688243534B143B1A60704726
:1050400039B1514A103A126802434F4B103B1A6073
:1050500006E04D4A103A126882434B4B103B1A60EF
:10506000704739B1484A1C3212680243464B1C3320
:105070001A6006E0444A1C3212688243424B1C33D9
:105080001A60704739B1404A2032126802433E4BE1
:1050900020331A6006E03C4A2032126882433A4BC1
:1050A00020331A60704739B1374A243212680243FC
:1050B000354B24331A6006E0334A243212688243A7
:1050C000314B24331A60704739B12F4A2C321268A1
:1050D00002432D4B2C331A6006E02B4A2C32126807
:1050E0008243294B2C331A60704739B1264A30323B
:1050F00012680243244B30331A6006E0224A3032F1
:1051000012688243204B30331A607047012808D15F
:105110001D493C31096841F008011B4A3C321160CD
:1051200007E019493C31096821F00801164A3C3270
:105130001160704739B1144A273A12780243124B72
:10514000273B1A7006E0104A273A127882430E4B2A
:10515000273B1A7070470C484030006840F0807060
:10516000094940310860704701460020064A283A44
:1051700012680A400AB1012000E00020704702498D
:1051800026390870704700003438024010B50121FC
:105190008803FFF755FF00214FF48040FFF750FFD1
:1051A00010BD1C49086070471B490862704730B544
:1051B00000228B071C0F0F2303FA04F2154B083350
:1051C0008C1053F824309343124C08348D1044F85B
:1051D000253023468C1053F824308C07240F00FA16
:1051E00004F423430B4C08348D1044F8253030BDB3
:1051F0000949DC31086070470849086070470020A1
:1052000004492031096801F4807109B1012000E0EE
:105210000020704700380140000027420004274268
:1052200010B50446FA48844208D101211020FFF746
:1052300007FF00211020FFF703FF57E0F5488442E5
:1052400009D101214804FFF7EAFE00214FF40030A4
:10525000FFF7E5FE4AE0F048844209D101218804C5
:10526000FFF7DDFE00214FF48020FFF7D8FE3DE080
:10527000EA48844209D10121C804FFF7D0FE002189
:105280004FF40020FFF7CBFE30E0E548844209D11F
:1052900001210805FFF7C3FE00214FF48010FFF73E
:1052A000BEFE23E0DF48844208D101212020FFF721
:1052B000C7FE00212020FFF7C3FE17E0DA48844232
:1052C00009D101218807FFF7AAFE00214FF0804095
:1052D000FFF7A5FE0AE0D548844207D10121400529
:1052E000FFF79DFE00216005FFF799FE10BD2DE937
:1052F000FF4705460E460024A14600BFA046B089E0
:1053000000B100BF2C8A24F44054F08804432C825E
:10531000AC8941F20C608443B088318908437189BB
:1053200008430443AC81AC8A24F44074B08904433C
:10533000AC826846FFF706FDB548854202D0B94801
:10534000854202D1DDF80C9001E0DDF80890A889D3
:1053500000F4004040B109EBC90000EB09103168CE
:105360004900B0FBF1F707E009EBC90000EB0910B9
:1053700031688900B0FBF1F76420B7FBF0F004015D
:105380002009642101FB1078A88900F4004040B195
:10539000322000EBC800B0FBF1F000F0070004433E
:1053A00008E0322000EB08106421B0FBF1F000F0BF
:1053B0000F0004432C81BDE8FF874FF416510160B4
:1053C00000218180C18001810C21418100218181E6
:1053D000704710B502460020108A20F470600B88D8
:1053E0004C8823438C882343CC8823431843108262
:1053F00010BD0021018041808180C180704721B1B2
:10540000828942F40052828104E082894DF6FF7362
:105410001A4082817047028B02F47F420283028B22
:105420000A430283704721B1828942F4004282819B
:1054300003E08289C2F30E028281704721B1828A21
:1054400042F40062828204E0828A4FF2FF731A40C3
:1054500082827047C1F308028280704701468888C3
:10546000C0F308007047028A4FF6F0731A400282B8
:10547000028A0A430282704721B1828942F0020205
:10548000828104E082894FF6FD731A408281704761
:1054900082894FF2FF731A40828182890A43828196
:1054A0007047028A4FF6DF731A400282028A0A436B
:1054B0000282704721B1028A42F48042028204E0F3
:1054C000028A4BF6FF731A4002827047818941F0CD
:1054D00001018181704721B1828A42F008028282F3
:1054E00004E0828A4FF6F7731A4082827047028B7B
:1054F000D2B20283028B42EA01220283704721B1B9
:10550000828A42F02002828204E0828A4FF6DF73B0
:105510001A408282704721B1828A42F01002828250
:1055200004E0828A4FF6EF731A4082827047828AC3
:105530004FF6FB731A408282828A0A438282704746
:1055400021B1828A42F00202828204E0828A4FF60E
:10555000FD731A40828270471AB1838A0B4383829B
:1055600002E0838A8B4383827047F0B503460024B0
:1055700000260025002040F66A17B94200D100BF7E
:105580001846C1F3421401F01F06012707FA06F579
:10559000012C01D10C3004E0022C01D1103000E0CC
:1055A00014301AB107682F43076002E00768AF4361
:1055B0000760F0BD02460020B1F5007F00D100BFBA
:1055C00013880B400BB1012000E00020704701F46C
:1055D0000072B2F5007F00D100BFCA43028070475D
:1055E00070B50246002400230025002040F66A160C
:1055F000B14200D100BFC1F3421501F01F030126E3
:1056000006FA03F3012D13D19689334017E0000009
:10561000001001400044004000480040004C0040A1
:10562000005000400014014000780040007C004021
:10563000022D02D1168A334001E0968A33400C12C3
:10564000012606FA04F41688344013B10CB1012087
:1056500000E0002070BD10B50022002340F66A145F
:10566000A14200D100BF0A1201249440A3B2DC433E
:10567000048010BD10B50446FE48844209D10121C2
:105680004806FFF7CCFC00214FF00070FFF7C7FC85
:1056900008E001218806FFF7C2FC00214FF080607E
:1056A000FFF7BDFC10BD30B5024600200023146892
:1056B00024F002041460146844F00104146000E053
:1056C0005B1C546804F001041CB94FF6FF74A3423C
:1056D000F6D1546804F001040CB900206CE08C7918
:1056E000012C04D1146844F08004146003E01468B1
:1056F00024F080041460CC79012C04D1146844F0A7
:105700004004146003E0146824F0400414600C7A30
:10571000012C04D1146844F02004146003E01468E0
:1057200024F0200414604C7A012C04D1146844F055
:105730001004146003E0146824F0100414608C7AE0
:10574000012C04D1146844F00804146003E01468C8
:1057500024F008041460CC7A012C04D1146844F0BD
:105760000404146003E0146824F0040414608C78CA
:10577000A407CD7844EA05640D7944EA05444D79DF
:1057800044EA05540D886D1E2C43D461146824F03E
:1057900001041460002300E05B1C546804F0010461
:1057A0001CB14FF6FF74A342F6D1546804F0010413
:1057B0000CB1002000E0012030BD10B50021837A3B
:1057C000012202FA03F1AC4A126842F00102AA4B2C
:1057D0001A60A94A1C3212688A43A74B1C331A600C
:1057E000027BCAB9A44A0C3212688A43A24B0C331A
:1057F0001A604288C38842EA03439F4A4032847A4F
:1058000042F834300288838842EA03439A4A40329D
:10581000847A02EBC4025360027B012A19D1964AB2
:105820000C3212680A43944B0C331A604288038886
:1058300042EA0343904A4032847A42F83430C288C4
:10584000838842EA03438C4A4032847A02EBC402E2
:105850005360C27A3AB9884A121D12688A43864B4D
:105860001B1D1A6006E0844A121D12680A43824B0F
:105870001B1D1A60028932B97F4A143212688A43AA
:105880007D4B14331A600289012A06D17A4A1432F8
:1058900012680A43784B14331A60427B012A06D1FE
:1058A000754A1C3212680A43734B1C331A60724AE1
:1058B000126822F00102704B1A6010BD0021817144
:1058C000C171017241728172C1728170C170032114
:1058D0000171022141710121018070476649096807
:1058E00041F00101644A11601146096843F60E72E5
:1058F0009143614A11601146096841EA0021116033
:105900001146096821F001011160704721B1026858
:1059100042F48032026003E0026822F480320260C6
:105920007047E1B1026842F0800202604FF4C27237
:10593000125842F480734FF4C27213504FF4CA727B
:10594000125842F480734FF4CA7213504FF4D2725B
:10595000125842F480734FF4D27213501BE0026865
:1059600022F0800202604FF4C272125822F4807357
:105970004FF4C27213504FF4CA72125822F480735B
:105980004FF4CA7213504FF4D272125822F480733B
:105990004FF4D2721350704710B50246002093683E
:1059A00003F08063B3F1806F00D110E0936803F0DF
:1059B0000063B3F1006F01D1012008E0936803F0A8
:1059C0008053B3F1805F01D1022000E0042004285D
:1059D00079D002F5C07303EB00131B6803F00104D8
:1059E00002F5C07303EB00131C600B7A7BB94B7A92
:1059F0000C8843EA445302F5C07404EB0014246895
:105A0000234302F5C07404EB0014236010E00B7A0A
:105A10004C6843EAC4034C7A234302F5C07404EB98
:105A200000142468234302F5C07404EB00142360BF
:105A30008B7A03F00F038B7202F5C07303EB001334
:105A40005B6823F00F0402F5C07303EB00135C6086
:105A500002F5C07303EB00135B688C7A234302F5F5
:105A6000C07404EB001463608B7B1C064B7B44EA20
:105A7000034403E000640040006600400B7B44EAFE
:105A80000323CC7A234302F5C07404EB0014A36013
:105A90008B7C1C064B7C44EA03440B7C44EA0323C6
:105AA000CC7B234302F5C07404EB0014E36002F5E1
:105AB000C07303EB00131B6843F0010402F5C073CD
:105AC00003EB00131C6010BD10B50246002321B18A
:105AD000012907D002290FD109E09068F94C00EAAA
